{
  "address": "0x9A676e781A523b5d0C0e43731313A708CB607508",
  "abi": [
    {
      "inputs": [],
      "stateMutability": "nonpayable",
      "type": "constructor"
    },
    {
      "anonymous": false,
      "inputs": [
        {
          "indexed": true,
          "internalType": "address",
          "name": "owner",
          "type": "address"
        },
        {
          "indexed": true,
          "internalType": "address",
          "name": "approved",
          "type": "address"
        },
        {
          "indexed": true,
          "internalType": "uint256",
          "name": "tokenId",
          "type": "uint256"
        }
      ],
      "name": "Approval",
      "type": "event"
    },
    {
      "anonymous": false,
      "inputs": [
        {
          "indexed": true,
          "internalType": "address",
          "name": "owner",
          "type": "address"
        },
        {
          "indexed": true,
          "internalType": "address",
          "name": "operator",
          "type": "address"
        },
        {
          "indexed": false,
          "internalType": "bool",
          "name": "approved",
          "type": "bool"
        }
      ],
      "name": "ApprovalForAll",
      "type": "event"
    },
    {
      "anonymous": false,
      "inputs": [
        {
          "indexed": true,
          "internalType": "address",
          "name": "previousOwner",
          "type": "address"
        },
        {
          "indexed": true,
          "internalType": "address",
          "name": "newOwner",
          "type": "address"
        }
      ],
      "name": "OwnershipTransferred",
      "type": "event"
    },
    {
      "anonymous": false,
      "inputs": [
        {
          "indexed": true,
          "internalType": "address",
          "name": "from",
          "type": "address"
        },
        {
          "indexed": true,
          "internalType": "address",
          "name": "to",
          "type": "address"
        },
        {
          "indexed": true,
          "internalType": "uint256",
          "name": "tokenId",
          "type": "uint256"
        }
      ],
      "name": "Transfer",
      "type": "event"
    },
    {
      "inputs": [
        {
          "internalType": "address",
          "name": "to",
          "type": "address"
        },
        {
          "internalType": "uint256",
          "name": "tokenId",
          "type": "uint256"
        }
      ],
      "name": "approve",
      "outputs": [],
      "stateMutability": "nonpayable",
      "type": "function"
    },
    {
      "inputs": [
        {
          "internalType": "address",
          "name": "owner",
          "type": "address"
        }
      ],
      "name": "balanceOf",
      "outputs": [
        {
          "internalType": "uint256",
          "name": "",
          "type": "uint256"
        }
      ],
      "stateMutability": "view",
      "type": "function"
    },
    {
      "inputs": [],
      "name": "fundProject",
      "outputs": [],
      "stateMutability": "payable",
      "type": "function"
    },
    {
      "inputs": [
        {
          "internalType": "uint256",
          "name": "tokenId",
          "type": "uint256"
        }
      ],
      "name": "getApproved",
      "outputs": [
        {
          "internalType": "address",
          "name": "",
          "type": "address"
        }
      ],
      "stateMutability": "view",
      "type": "function"
    },
    {
      "inputs": [],
      "name": "getBalance",
      "outputs": [
        {
          "internalType": "uint256",
          "name": "",
          "type": "uint256"
        }
      ],
      "stateMutability": "view",
      "type": "function"
    },
    {
      "inputs": [],
      "name": "getImpactScore",
      "outputs": [
        {
          "internalType": "uint256",
          "name": "",
          "type": "uint256"
        }
      ],
      "stateMutability": "view",
      "type": "function"
    },
    {
      "inputs": [],
      "name": "getReceiver",
      "outputs": [
        {
          "internalType": "address",
          "name": "",
          "type": "address"
        }
      ],
      "stateMutability": "view",
      "type": "function"
    },
    {
      "inputs": [],
      "name": "getScore",
      "outputs": [
        {
          "internalType": "uint256",
          "name": "",
          "type": "uint256"
        }
      ],
      "stateMutability": "view",
      "type": "function"
    },
    {
      "inputs": [
        {
          "internalType": "address",
          "name": "owner",
          "type": "address"
        },
        {
          "internalType": "address",
          "name": "operator",
          "type": "address"
        }
      ],
      "name": "isApprovedForAll",
      "outputs": [
        {
          "internalType": "bool",
          "name": "",
          "type": "bool"
        }
      ],
      "stateMutability": "view",
      "type": "function"
    },
    {
      "inputs": [
        {
          "internalType": "address",
          "name": "to",
          "type": "address"
        }
      ],
      "name": "mintItem",
      "outputs": [
        {
          "internalType": "uint256",
          "name": "",
          "type": "uint256"
        }
      ],
      "stateMutability": "payable",
      "type": "function"
    },
    {
      "inputs": [
        {
          "internalType": "address payable",
          "name": "_to",
          "type": "address"
        },
        {
          "internalType": "uint256",
          "name": "amount",
          "type": "uint256"
        }
      ],
      "name": "moveFunds",
      "outputs": [],
      "stateMutability": "payable",
      "type": "function"
    },
    {
      "inputs": [],
      "name": "name",
      "outputs": [
        {
          "internalType": "string",
          "name": "",
          "type": "string"
        }
      ],
      "stateMutability": "view",
      "type": "function"
    },
    {
      "inputs": [],
      "name": "owner",
      "outputs": [
        {
          "internalType": "address",
          "name": "",
          "type": "address"
        }
      ],
      "stateMutability": "view",
      "type": "function"
    },
    {
      "inputs": [
        {
          "internalType": "uint256",
          "name": "tokenId",
          "type": "uint256"
        }
      ],
      "name": "ownerOf",
      "outputs": [
        {
          "internalType": "address",
          "name": "",
          "type": "address"
        }
      ],
      "stateMutability": "view",
      "type": "function"
    },
    {
      "inputs": [],
      "name": "renounceOwnership",
      "outputs": [],
      "stateMutability": "nonpayable",
      "type": "function"
    },
    {
      "inputs": [
        {
          "internalType": "address",
          "name": "from",
          "type": "address"
        },
        {
          "internalType": "address",
          "name": "to",
          "type": "address"
        },
        {
          "internalType": "uint256",
          "name": "tokenId",
          "type": "uint256"
        }
      ],
      "name": "safeTransferFrom",
      "outputs": [],
      "stateMutability": "nonpayable",
      "type": "function"
    },
    {
      "inputs": [
        {
          "internalType": "address",
          "name": "from",
          "type": "address"
        },
        {
          "internalType": "address",
          "name": "to",
          "type": "address"
        },
        {
          "internalType": "uint256",
          "name": "tokenId",
          "type": "uint256"
        },
        {
          "internalType": "bytes",
          "name": "_data",
          "type": "bytes"
        }
      ],
      "name": "safeTransferFrom",
      "outputs": [],
      "stateMutability": "nonpayable",
      "type": "function"
    },
    {
      "inputs": [
        {
          "internalType": "address",
          "name": "operator",
          "type": "address"
        },
        {
          "internalType": "bool",
          "name": "approved",
          "type": "bool"
        }
      ],
      "name": "setApprovalForAll",
      "outputs": [],
      "stateMutability": "nonpayable",
      "type": "function"
    },
    {
      "inputs": [
        {
          "internalType": "address",
          "name": "receiver",
          "type": "address"
        }
      ],
      "name": "setReceiver",
      "outputs": [],
      "stateMutability": "nonpayable",
      "type": "function"
    },
    {
      "inputs": [
        {
          "internalType": "bytes4",
          "name": "interfaceId",
          "type": "bytes4"
        }
      ],
      "name": "supportsInterface",
      "outputs": [
        {
          "internalType": "bool",
          "name": "",
          "type": "bool"
        }
      ],
      "stateMutability": "view",
      "type": "function"
    },
    {
      "inputs": [],
      "name": "symbol",
      "outputs": [
        {
          "internalType": "string",
          "name": "",
          "type": "string"
        }
      ],
      "stateMutability": "view",
      "type": "function"
    },
    {
      "inputs": [
        {
          "internalType": "uint256",
          "name": "index",
          "type": "uint256"
        }
      ],
      "name": "tokenByIndex",
      "outputs": [
        {
          "internalType": "uint256",
          "name": "",
          "type": "uint256"
        }
      ],
      "stateMutability": "view",
      "type": "function"
    },
    {
      "inputs": [
        {
          "internalType": "address",
          "name": "owner",
          "type": "address"
        },
        {
          "internalType": "uint256",
          "name": "index",
          "type": "uint256"
        }
      ],
      "name": "tokenOfOwnerByIndex",
      "outputs": [
        {
          "internalType": "uint256",
          "name": "",
          "type": "uint256"
        }
      ],
      "stateMutability": "view",
      "type": "function"
    },
    {
      "inputs": [
        {
          "internalType": "uint256",
          "name": "tokenId",
          "type": "uint256"
        }
      ],
      "name": "tokenURI",
      "outputs": [
        {
          "internalType": "string",
          "name": "",
          "type": "string"
        }
      ],
      "stateMutability": "view",
      "type": "function"
    },
    {
      "inputs": [],
      "name": "totalSupply",
      "outputs": [
        {
          "internalType": "uint256",
          "name": "",
          "type": "uint256"
        }
      ],
      "stateMutability": "view",
      "type": "function"
    },
    {
      "inputs": [
        {
          "internalType": "address",
          "name": "from",
          "type": "address"
        },
        {
          "internalType": "address",
          "name": "to",
          "type": "address"
        },
        {
          "internalType": "uint256",
          "name": "tokenId",
          "type": "uint256"
        }
      ],
      "name": "transferFrom",
      "outputs": [],
      "stateMutability": "nonpayable",
      "type": "function"
    },
    {
      "inputs": [
        {
          "internalType": "address",
          "name": "newOwner",
          "type": "address"
        }
      ],
      "name": "transferOwnership",
      "outputs": [],
      "stateMutability": "nonpayable",
      "type": "function"
    },
    {
      "inputs": [
        {
          "internalType": "uint256",
          "name": "score",
          "type": "uint256"
        }
      ],
      "name": "updateImpactScore",
      "outputs": [],
      "stateMutability": "nonpayable",
      "type": "function"
    },
    {
      "inputs": [
        {
          "internalType": "uint256",
          "name": "tokenId",
          "type": "uint256"
        }
      ],
      "name": "updateNFT",
      "outputs": [],
      "stateMutability": "nonpayable",
      "type": "function"
    }
  ],
  "transactionHash": "0x1d293e046cdc881fdb469e7391b4c78797a6a118a5e234ceaa080688df2117f8",
  "args": [],
  "numDeployments": 1,
  "solcInputHash": "80dc7db5dbbdc6cdcddd3cc9312f5212",
  "bytecode": "0x608060405260006012553480156200001657600080fd5b5060405180604001604052806009815260200168125b5c1858dd13919560ba1b815250604051806040016040528060048152602001631253919560e21b815250620000706200006a620000b660201b60201c565b620000ba565b8151620000859060019060208501906200010a565b5080516200009b9060029060208401906200010a565b5050601180546001600160a01b0319163317905550620001ed565b3390565b600080546001600160a01b038381166001600160a01b0319831681178455604051919092169283917f8be0079c531659141344cd1fd0a4f28419497f9722a3daafe3b4186f6b6457e09190a35050565b8280546200011890620001b0565b90600052602060002090601f0160209004810192826200013c576000855562000187565b82601f106200015757805160ff191683800117855562000187565b8280016001018555821562000187579182015b82811115620001875782518255916020019190600101906200016a565b506200019592915062000199565b5090565b5b808211156200019557600081556001016200019a565b600181811c90821680620001c557607f821691505b60208210811415620001e757634e487b7160e01b600052602260045260246000fd5b50919050565b6121f980620001fd6000396000f3fe6080604052600436106101c25760003560e01c8063715018a6116100f7578063a22cb46511610095578063ccffb72411610064578063ccffb724146104ab578063d63dc66114610276578063e985e9c5146104cb578063f2fde38b1461051457600080fd5b8063a22cb4651461044b578063afd82067146103c5578063b88d4fde1461046b578063c87b56dd1461048b57600080fd5b806373ecc26d116100d157806373ecc26d146103da5780638da5cb5b146103fa57806395d89b411461041857806398aca9221461042d57600080fd5b8063715018a614610390578063718da7ee146103a55780637255887b146103c557600080fd5b80632f745c59116101645780634f6ccce71161013e5780634f6ccce71461031d5780636352211e1461033d578063691c65d41461035d57806370a082311461037057600080fd5b80632f745c59146102ca5780633e476053146102ea57806342842e0e146102fd57600080fd5b8063095ea7b3116101a0578063095ea7b31461025657806312065fe01461027857806318160ddd1461029557806323b872dd146102aa57600080fd5b806301ffc9a7146101c757806306fdde03146101fc578063081812fc1461021e575b600080fd5b3480156101d357600080fd5b506101e76101e2366004611e55565b610534565b60405190151581526020015b60405180910390f35b34801561020857600080fd5b50610211610545565b6040516101f39190611f3d565b34801561022a57600080fd5b5061023e610239366004611e8d565b6105d7565b6040516001600160a01b0390911681526020016101f3565b34801561026257600080fd5b50610276610271366004611e43565b610664565b005b34801561028457600080fd5b50475b6040519081526020016101f3565b3480156102a157600080fd5b50600954610287565b3480156102b657600080fd5b506102766102c5366004611cf9565b61077a565b3480156102d657600080fd5b506102876102e5366004611e43565b6107ab565b6102766102f8366004611c96565b610841565b34801561030957600080fd5b50610276610318366004611cf9565b610907565b34801561032957600080fd5b50610287610338366004611e8d565b610922565b34801561034957600080fd5b5061023e610358366004611e8d565b6109c3565b61028761036b366004611c7a565b610a3a565b34801561037c57600080fd5b5061028761038b366004611c7a565b610ad6565b34801561039c57600080fd5b50610276610b5d565b3480156103b157600080fd5b506102766103c0366004611c7a565b610bc3565b3480156103d157600080fd5b50601254610287565b3480156103e657600080fd5b506102766103f5366004611e8d565b610bfc565b34801561040657600080fd5b506000546001600160a01b031661023e565b34801561042457600080fd5b50610211610c08565b34801561043957600080fd5b506011546001600160a01b031661023e565b34801561045757600080fd5b50610276610466366004611e12565b610c17565b34801561047757600080fd5b50610276610486366004611d39565b610c26565b34801561049757600080fd5b506102116104a6366004611e8d565b610c58565b3480156104b757600080fd5b506102766104c6366004611e8d565b601255565b3480156104d757600080fd5b506101e76104e6366004611cc1565b6001600160a01b03918216600090815260066020908152604080832093909416825291909152205460ff1690565b34801561052057600080fd5b5061027661052f366004611c7a565b610c63565b600061053f82610d2b565b92915050565b60606001805461055490612062565b80601f016020809104026020016040519081016040528092919081815260200182805461058090612062565b80156105cd5780601f106105a2576101008083540402835291602001916105cd565b820191906000526020600020905b8154815290600101906020018083116105b057829003601f168201915b5050505050905090565b60006105e282610d50565b6106485760405162461bcd60e51b815260206004820152602c60248201527f4552433732313a20617070726f76656420717565727920666f72206e6f6e657860448201526b34b9ba32b73a103a37b5b2b760a11b60648201526084015b60405180910390fd5b506000908152600560205260409020546001600160a01b031690565b600061066f826109c3565b9050806001600160a01b0316836001600160a01b031614156106dd5760405162461bcd60e51b815260206004820152602160248201527f4552433732313a20617070726f76616c20746f2063757272656e74206f776e656044820152603960f91b606482015260840161063f565b336001600160a01b03821614806106f957506106f981336104e6565b61076b5760405162461bcd60e51b815260206004820152603860248201527f4552433732313a20617070726f76652063616c6c6572206973206e6f74206f7760448201527f6e6572206e6f7220617070726f76656420666f7220616c6c0000000000000000606482015260840161063f565b6107758383610d6d565b505050565b6107843382610ddb565b6107a05760405162461bcd60e51b815260040161063f90611fa2565b610775838383610ec5565b60006107b683610ad6565b82106108185760405162461bcd60e51b815260206004820152602b60248201527f455243373231456e756d657261626c653a206f776e657220696e646578206f7560448201526a74206f6620626f756e647360a81b606482015260840161063f565b506001600160a01b03919091166000908152600760209081526040808320938352929052205490565b6011546001600160a01b0316331461085857600080fd5b8047101561086557600080fd5b600080836001600160a01b03168360405160006040518083038185875af1925050503d80600081146108b3576040519150601f19603f3d011682016040523d82523d6000602084013e6108b8565b606091505b5091509150816109015760405162461bcd60e51b81526020600482015260146024820152732330b4b632b2103a379039b2b7321022ba3432b960611b604482015260640161063f565b50505050565b61077583838360405180602001604052806000815250610c26565b600061092d60095490565b82106109905760405162461bcd60e51b815260206004820152602c60248201527f455243373231456e756d657261626c653a20676c6f62616c20696e646578206f60448201526b7574206f6620626f756e647360a01b606482015260840161063f565b600982815481106109b157634e487b7160e01b600052603260045260246000fd5b90600052602060002001549050919050565b6000818152600360205260408120546001600160a01b03168061053f5760405162461bcd60e51b815260206004820152602960248201527f4552433732313a206f776e657220717565727920666f72206e6f6e657869737460448201526832b73a103a37b5b2b760b91b606482015260840161063f565b6000610a4a600c80546001019055565b610a58600d80546001019055565b33600e6000610a66600d5490565b81526020808201929092526040908101600090812080546001600160a01b0319166001600160a01b039590951694909417909355338352600f909152902054610ab0903490611ff3565b336000908152600f6020526040902055600c54610acd8382611070565b61053f8161108a565b60006001600160a01b038216610b415760405162461bcd60e51b815260206004820152602a60248201527f4552433732313a2062616c616e636520717565727920666f7220746865207a65604482015269726f206164647265737360b01b606482015260840161063f565b506001600160a01b031660009081526004602052604090205490565b6000546001600160a01b03163314610bb75760405162461bcd60e51b815260206004820181905260248201527f4f776e61626c653a2063616c6c6572206973206e6f7420746865206f776e6572604482015260640161063f565b610bc1600061111d565b565b6011546001600160a01b03163314610bda57600080fd5b601180546001600160a01b0319166001600160a01b0392909216919091179055565b610c058161108a565b50565b60606002805461055490612062565b610c2233838361116d565b5050565b610c303383610ddb565b610c4c5760405162461bcd60e51b815260040161063f90611fa2565b6109018484848461123c565b606061053f8261126f565b6000546001600160a01b03163314610cbd5760405162461bcd60e51b815260206004820181905260248201527f4f776e61626c653a2063616c6c6572206973206e6f7420746865206f776e6572604482015260640161063f565b6001600160a01b038116610d225760405162461bcd60e51b815260206004820152602660248201527f4f776e61626c653a206e6577206f776e657220697320746865207a65726f206160448201526564647265737360d01b606482015260840161063f565b610c058161111d565b60006001600160e01b0319821663780e9d6360e01b148061053f575061053f826113fb565b6000908152600360205260409020546001600160a01b0316151590565b600081815260056020526040902080546001600160a01b0319166001600160a01b0384169081179091558190610da2826109c3565b6001600160a01b03167f8c5be1e5ebec7d5bd14f71427d1e84f3dd0314c0f7b2291e5b200ac8c7c3b92560405160405180910390a45050565b6000610de682610d50565b610e475760405162461bcd60e51b815260206004820152602c60248201527f4552433732313a206f70657261746f7220717565727920666f72206e6f6e657860448201526b34b9ba32b73a103a37b5b2b760a11b606482015260840161063f565b6000610e52836109c3565b9050806001600160a01b0316846001600160a01b03161480610e8d5750836001600160a01b0316610e82846105d7565b6001600160a01b0316145b80610ebd57506001600160a01b0380821660009081526006602090815260408083209388168352929052205460ff165b949350505050565b826001600160a01b0316610ed8826109c3565b6001600160a01b031614610f405760405162461bcd60e51b815260206004820152602960248201527f4552433732313a207472616e73666572206f6620746f6b656e2074686174206960448201526839903737ba1037bbb760b91b606482015260840161063f565b6001600160a01b038216610fa25760405162461bcd60e51b8152602060048201526024808201527f4552433732313a207472616e7366657220746f20746865207a65726f206164646044820152637265737360e01b606482015260840161063f565b610fad83838361144b565b610fb8600082610d6d565b6001600160a01b0383166000908152600460205260408120805460019290610fe190849061201f565b90915550506001600160a01b038216600090815260046020526040812080546001929061100f908490611ff3565b909155505060008181526003602052604080822080546001600160a01b0319166001600160a01b0386811691821790925591518493918716917fddf252ad1be2c89b69c2b068fc378daa952ba7f163c4a11628f55a4df523b3ef91a4505050565b610c22828260405180602001604052806000815250611456565b60606103e860125410156110b4576040518060600160405280602e815260200161213a602e913990505b6103e8601254101580156110cb57506107d0601254105b156110ec576040518060600160405280602e8152602001612168602e913990505b6107d060125410611113576040518060600160405280602e8152602001612196602e913990505b610c228282611489565b600080546001600160a01b038381166001600160a01b0319831681178455604051919092169283917f8be0079c531659141344cd1fd0a4f28419497f9722a3daafe3b4186f6b6457e09190a35050565b816001600160a01b0316836001600160a01b031614156111cf5760405162461bcd60e51b815260206004820152601960248201527f4552433732313a20617070726f766520746f2063616c6c657200000000000000604482015260640161063f565b6001600160a01b03838116600081815260066020908152604080832094871680845294825291829020805460ff191686151590811790915591519182527f17307eab39ab6107e8899845ad3d59bd9653f200f220920489ca2b5937696c31910160405180910390a3505050565b611247848484610ec5565b61125384848484611514565b6109015760405162461bcd60e51b815260040161063f90611f50565b606061127a82610d50565b6112e05760405162461bcd60e51b815260206004820152603160248201527f45524337323155524953746f726167653a2055524920717565727920666f72206044820152703737b732bc34b9ba32b73a103a37b5b2b760791b606482015260840161063f565b6000828152600b6020526040812080546112f990612062565b80601f016020809104026020016040519081016040528092919081815260200182805461132590612062565b80156113725780601f1061134757610100808354040283529160200191611372565b820191906000526020600020905b81548152906001019060200180831161135557829003601f168201915b5050505050905060006113ad60408051808201909152601581527468747470733a2f2f697066732e696f2f697066732f60581b602082015290565b90508051600014156113c0575092915050565b8151156113f25780826040516020016113da929190611ed1565b60405160208183030381529060405292505050919050565b610ebd84611621565b60006001600160e01b031982166380ac58cd60e01b148061142c57506001600160e01b03198216635b5e139f60e01b145b8061053f57506301ffc9a760e01b6001600160e01b031983161461053f565b610775838383611716565b61146083836117ce565b61146d6000848484611514565b6107755760405162461bcd60e51b815260040161063f90611f50565b61149282610d50565b6114f55760405162461bcd60e51b815260206004820152602e60248201527f45524337323155524953746f726167653a2055524920736574206f66206e6f6e60448201526d32bc34b9ba32b73a103a37b5b2b760911b606482015260840161063f565b6000828152600b60209081526040909120825161077592840190611be1565b60006001600160a01b0384163b1561161657604051630a85bd0160e11b81526001600160a01b0385169063150b7a0290611558903390899088908890600401611f00565b602060405180830381600087803b15801561157257600080fd5b505af19250505080156115a2575060408051601f3d908101601f1916820190925261159f91810190611e71565b60015b6115fc573d8080156115d0576040519150601f19603f3d011682016040523d82523d6000602084013e6115d5565b606091505b5080516115f45760405162461bcd60e51b815260040161063f90611f50565b805181602001fd5b6001600160e01b031916630a85bd0160e11b149050610ebd565b506001949350505050565b606061162c82610d50565b6116905760405162461bcd60e51b815260206004820152602f60248201527f4552433732314d657461646174613a2055524920717565727920666f72206e6f60448201526e3732bc34b9ba32b73a103a37b5b2b760891b606482015260840161063f565b60006116c460408051808201909152601581527468747470733a2f2f697066732e696f2f697066732f60581b602082015290565b905060008151116116e4576040518060200160405280600081525061170f565b806116ee8461190d565b6040516020016116ff929190611ed1565b6040516020818303038152906040525b9392505050565b6001600160a01b0383166117715761176c81600980546000838152600a60205260408120829055600182018355919091527f6e1540171b6c0c960b71a7020d9f60077f6af931a8bbf590da0223dacf75c7af0155565b611794565b816001600160a01b0316836001600160a01b031614611794576117948382611a27565b6001600160a01b0382166117ab5761077581611ac4565b826001600160a01b0316826001600160a01b031614610775576107758282611b9d565b6001600160a01b0382166118245760405162461bcd60e51b815260206004820181905260248201527f4552433732313a206d696e7420746f20746865207a65726f2061646472657373604482015260640161063f565b61182d81610d50565b1561187a5760405162461bcd60e51b815260206004820152601c60248201527f4552433732313a20746f6b656e20616c7265616479206d696e74656400000000604482015260640161063f565b6118866000838361144b565b6001600160a01b03821660009081526004602052604081208054600192906118af908490611ff3565b909155505060008181526003602052604080822080546001600160a01b0319166001600160a01b03861690811790915590518392907fddf252ad1be2c89b69c2b068fc378daa952ba7f163c4a11628f55a4df523b3ef908290a45050565b6060816119315750506040805180820190915260018152600360fc1b602082015290565b8160005b811561195b57806119458161209d565b91506119549050600a8361200b565b9150611935565b60008167ffffffffffffffff81111561198457634e487b7160e01b600052604160045260246000fd5b6040519080825280601f01601f1916602001820160405280156119ae576020820181803683370190505b5090505b8415610ebd576119c360018361201f565b91506119d0600a866120b8565b6119db906030611ff3565b60f81b8183815181106119fe57634e487b7160e01b600052603260045260246000fd5b60200101906001600160f81b031916908160001a905350611a20600a8661200b565b94506119b2565b60006001611a3484610ad6565b611a3e919061201f565b600083815260086020526040902054909150808214611a91576001600160a01b03841660009081526007602090815260408083208584528252808320548484528184208190558352600890915290208190555b5060009182526008602090815260408084208490556001600160a01b039094168352600781528383209183525290812055565b600954600090611ad69060019061201f565b6000838152600a602052604081205460098054939450909284908110611b0c57634e487b7160e01b600052603260045260246000fd5b906000526020600020015490508060098381548110611b3b57634e487b7160e01b600052603260045260246000fd5b6000918252602080832090910192909255828152600a90915260408082208490558582528120556009805480611b8157634e487b7160e01b600052603160045260246000fd5b6001900381819060005260206000200160009055905550505050565b6000611ba883610ad6565b6001600160a01b039093166000908152600760209081526040808320868452825280832085905593825260089052919091209190915550565b828054611bed90612062565b90600052602060002090601f016020900481019282611c0f5760008555611c55565b82601f10611c2857805160ff1916838001178555611c55565b82800160010185558215611c55579182015b82811115611c55578251825591602001919060010190611c3a565b50611c61929150611c65565b5090565b5b80821115611c615760008155600101611c66565b600060208284031215611c8b578081fd5b813561170f8161210e565b60008060408385031215611ca8578081fd5b8235611cb38161210e565b946020939093013593505050565b60008060408385031215611cd3578182fd5b8235611cde8161210e565b91506020830135611cee8161210e565b809150509250929050565b600080600060608486031215611d0d578081fd5b8335611d188161210e565b92506020840135611d288161210e565b929592945050506040919091013590565b60008060008060808587031215611d4e578081fd5b8435611d598161210e565b93506020850135611d698161210e565b925060408501359150606085013567ffffffffffffffff80821115611d8c578283fd5b818701915087601f830112611d9f578283fd5b813581811115611db157611db16120f8565b604051601f8201601f19908116603f01168101908382118183101715611dd957611dd96120f8565b816040528281528a6020848701011115611df1578586fd5b82602086016020830137918201602001949094529598949750929550505050565b60008060408385031215611e24578182fd5b8235611e2f8161210e565b915060208301358015158114611cee578182fd5b60008060408385031215611ca8578182fd5b600060208284031215611e66578081fd5b813561170f81612123565b600060208284031215611e82578081fd5b815161170f81612123565b600060208284031215611e9e578081fd5b5035919050565b60008151808452611ebd816020860160208601612036565b601f01601f19169290920160200192915050565b60008351611ee3818460208801612036565b835190830190611ef7818360208801612036565b01949350505050565b6001600160a01b0385811682528416602082015260408101839052608060608201819052600090611f3390830184611ea5565b9695505050505050565b60208152600061170f6020830184611ea5565b60208082526032908201527f4552433732313a207472616e7366657220746f206e6f6e20455243373231526560408201527131b2b4bb32b91034b6b83632b6b2b73a32b960711b606082015260800190565b60208082526031908201527f4552433732313a207472616e736665722063616c6c6572206973206e6f74206f6040820152701ddb995c881b9bdc88185c1c1c9bdd9959607a1b606082015260800190565b60008219821115612006576120066120cc565b500190565b60008261201a5761201a6120e2565b500490565b600082821015612031576120316120cc565b500390565b60005b83811015612051578181015183820152602001612039565b838111156109015750506000910152565b600181811c9082168061207657607f821691505b6020821081141561209757634e487b7160e01b600052602260045260246000fd5b50919050565b60006000198214156120b1576120b16120cc565b5060010190565b6000826120c7576120c76120e2565b500690565b634e487b7160e01b600052601160045260246000fd5b634e487b7160e01b600052601260045260246000fd5b634e487b7160e01b600052604160045260246000fd5b6001600160a01b0381168114610c0557600080fd5b6001600160e01b031981168114610c0557600080fdfe516d66564d416d4e4d316b4445425972433254507a51446f4352464836463574453165394d7234466b6b52355872516d564869336334716b5a634833634a796e7a4458526d356e37647a633952395455745563666e57517668646377516d63766355614b66364a794358684c4431627936684a584e727550514773336b6b4c673257317872376e46316aa2646970667358221220af2976ff294c767524b53711f716a270c2951f5ee431f38c5265547ea665216364736f6c63430008040033",
  "devdoc": {
    "kind": "dev",
    "methods": {
      "approve(address,uint256)": {
        "details": "See {IERC721-approve}."
      },
      "balanceOf(address)": {
        "details": "See {IERC721-balanceOf}."
      },
      "getApproved(uint256)": {
        "details": "See {IERC721-getApproved}."
      },
      "isApprovedForAll(address,address)": {
        "details": "See {IERC721-isApprovedForAll}."
      },
      "name()": {
        "details": "See {IERC721Metadata-name}."
      },
      "owner()": {
        "details": "Returns the address of the current owner."
      },
      "ownerOf(uint256)": {
        "details": "See {IERC721-ownerOf}."
      },
      "renounceOwnership()": {
        "details": "Leaves the contract without owner. It will not be possible to call `onlyOwner` functions anymore. Can only be called by the current owner. NOTE: Renouncing ownership will leave the contract without an owner, thereby removing any functionality that is only available to the owner."
      },
      "safeTransferFrom(address,address,uint256)": {
        "details": "See {IERC721-safeTransferFrom}."
      },
      "safeTransferFrom(address,address,uint256,bytes)": {
        "details": "See {IERC721-safeTransferFrom}."
      },
      "setApprovalForAll(address,bool)": {
        "details": "See {IERC721-setApprovalForAll}."
      },
      "symbol()": {
        "details": "See {IERC721Metadata-symbol}."
      },
      "tokenByIndex(uint256)": {
        "details": "See {IERC721Enumerable-tokenByIndex}."
      },
      "tokenOfOwnerByIndex(address,uint256)": {
        "details": "See {IERC721Enumerable-tokenOfOwnerByIndex}."
      },
      "totalSupply()": {
        "details": "See {IERC721Enumerable-totalSupply}."
      },
      "transferFrom(address,address,uint256)": {
        "details": "See {IERC721-transferFrom}."
      },
      "transferOwnership(address)": {
        "details": "Transfers ownership of the contract to a new account (`newOwner`). Can only be called by the current owner."
      }
    },
    "version": 1
  },
  "userdoc": {
    "kind": "user",
    "methods": {},
    "version": 1
  },
  "storageLayout": {
    "storage": [
      {
        "astId": 7,
        "contract": "contracts/YourCollectible.sol:YourCollectible",
        "label": "_owner",
        "offset": 0,
        "slot": "0",
        "type": "t_address"
      },
      {
        "astId": 130,
        "contract": "contracts/YourCollectible.sol:YourCollectible",
        "label": "_name",
        "offset": 0,
        "slot": "1",
        "type": "t_string_storage"
      },
      {
        "astId": 132,
        "contract": "contracts/YourCollectible.sol:YourCollectible",
        "label": "_symbol",
        "offset": 0,
        "slot": "2",
        "type": "t_string_storage"
      },
      {
        "astId": 136,
        "contract": "contracts/YourCollectible.sol:YourCollectible",
        "label": "_owners",
        "offset": 0,
        "slot": "3",
        "type": "t_mapping(t_uint256,t_address)"
      },
      {
        "astId": 140,
        "contract": "contracts/YourCollectible.sol:YourCollectible",
        "label": "_balances",
        "offset": 0,
        "slot": "4",
        "type": "t_mapping(t_address,t_uint256)"
      },
      {
        "astId": 144,
        "contract": "contracts/YourCollectible.sol:YourCollectible",
        "label": "_tokenApprovals",
        "offset": 0,
        "slot": "5",
        "type": "t_mapping(t_uint256,t_address)"
      },
      {
        "astId": 150,
        "contract": "contracts/YourCollectible.sol:YourCollectible",
        "label": "_operatorApprovals",
        "offset": 0,
        "slot": "6",
        "type": "t_mapping(t_address,t_mapping(t_address,t_bool))"
      },
      {
        "astId": 1084,
        "contract": "contracts/YourCollectible.sol:YourCollectible",
        "label": "_ownedTokens",
        "offset": 0,
        "slot": "7",
        "type": "t_mapping(t_address,t_mapping(t_uint256,t_uint256))"
      },
      {
        "astId": 1088,
        "contract": "contracts/YourCollectible.sol:YourCollectible",
        "label": "_ownedTokensIndex",
        "offset": 0,
        "slot": "8",
        "type": "t_mapping(t_uint256,t_uint256)"
      },
      {
        "astId": 1091,
        "contract": "contracts/YourCollectible.sol:YourCollectible",
        "label": "_allTokens",
        "offset": 0,
        "slot": "9",
        "type": "t_array(t_uint256)dyn_storage"
      },
      {
        "astId": 1095,
        "contract": "contracts/YourCollectible.sol:YourCollectible",
        "label": "_allTokensIndex",
        "offset": 0,
        "slot": "10",
        "type": "t_mapping(t_uint256,t_uint256)"
      },
      {
        "astId": 1420,
        "contract": "contracts/YourCollectible.sol:YourCollectible",
        "label": "_tokenURIs",
        "offset": 0,
        "slot": "11",
        "type": "t_mapping(t_uint256,t_string_storage)"
      },
      {
        "astId": 2258,
        "contract": "contracts/YourCollectible.sol:YourCollectible",
        "label": "_tokenIdCounter",
        "offset": 0,
        "slot": "12",
        "type": "t_struct(Counter)1918_storage"
      },
      {
        "astId": 2261,
        "contract": "contracts/YourCollectible.sol:YourCollectible",
        "label": "_funderIdCounter",
        "offset": 0,
        "slot": "13",
        "type": "t_struct(Counter)1918_storage"
      },
      {
        "astId": 2265,
        "contract": "contracts/YourCollectible.sol:YourCollectible",
        "label": "_funders",
        "offset": 0,
        "slot": "14",
        "type": "t_mapping(t_uint256,t_address)"
      },
      {
        "astId": 2269,
        "contract": "contracts/YourCollectible.sol:YourCollectible",
        "label": "_fundingAmount",
        "offset": 0,
        "slot": "15",
        "type": "t_mapping(t_address,t_uint256)"
      },
      {
        "astId": 2273,
        "contract": "contracts/YourCollectible.sol:YourCollectible",
        "label": "_fundsAvailableForReceiver",
        "offset": 0,
        "slot": "16",
        "type": "t_mapping(t_address,t_uint256)"
      },
      {
        "astId": 2275,
        "contract": "contracts/YourCollectible.sol:YourCollectible",
        "label": "_receiver",
        "offset": 0,
        "slot": "17",
        "type": "t_address"
      },
      {
        "astId": 2278,
        "contract": "contracts/YourCollectible.sol:YourCollectible",
        "label": "_impactScore",
        "offset": 0,
        "slot": "18",
        "type": "t_uint256"
      },
      {
        "astId": 2280,
        "contract": "contracts/YourCollectible.sol:YourCollectible",
        "label": "_projectOwner",
        "offset": 0,
        "slot": "19",
        "type": "t_address"
      }
    ],
    "types": {
      "t_address": {
        "encoding": "inplace",
        "label": "address",
        "numberOfBytes": "20"
      },
      "t_array(t_uint256)dyn_storage": {
        "base": "t_uint256",
        "encoding": "dynamic_array",
        "label": "uint256[]",
        "numberOfBytes": "32"
      },
      "t_bool": {
        "encoding": "inplace",
        "label": "bool",
        "numberOfBytes": "1"
      },
      "t_mapping(t_address,t_bool)": {
        "encoding": "mapping",
        "key": "t_address",
        "label": "mapping(address => bool)",
        "numberOfBytes": "32",
        "value": "t_bool"
      },
      "t_mapping(t_address,t_mapping(t_address,t_bool))": {
        "encoding": "mapping",
        "key": "t_address",
        "label": "mapping(address => mapping(address => bool))",
        "numberOfBytes": "32",
        "value": "t_mapping(t_address,t_bool)"
      },
      "t_mapping(t_address,t_mapping(t_uint256,t_uint256))": {
        "encoding": "mapping",
        "key": "t_address",
        "label": "mapping(address => mapping(uint256 => uint256))",
        "numberOfBytes": "32",
        "value": "t_mapping(t_uint256,t_uint256)"
      },
      "t_mapping(t_address,t_uint256)": {
        "encoding": "mapping",
        "key": "t_address",
        "label": "mapping(address => uint256)",
        "numberOfBytes": "32",
        "value": "t_uint256"
      },
      "t_mapping(t_uint256,t_address)": {
        "encoding": "mapping",
        "key": "t_uint256",
        "label": "mapping(uint256 => address)",
        "numberOfBytes": "32",
        "value": "t_address"
      },
      "t_mapping(t_uint256,t_string_storage)": {
        "encoding": "mapping",
        "key": "t_uint256",
        "label": "mapping(uint256 => string)",
        "numberOfBytes": "32",
        "value": "t_string_storage"
      },
      "t_mapping(t_uint256,t_uint256)": {
        "encoding": "mapping",
        "key": "t_uint256",
        "label": "mapping(uint256 => uint256)",
        "numberOfBytes": "32",
        "value": "t_uint256"
      },
      "t_string_storage": {
        "encoding": "bytes",
        "label": "string",
        "numberOfBytes": "32"
      },
      "t_struct(Counter)1918_storage": {
        "encoding": "inplace",
        "label": "struct Counters.Counter",
        "members": [
          {
            "astId": 1917,
            "contract": "contracts/YourCollectible.sol:YourCollectible",
            "label": "_value",
            "offset": 0,
            "slot": "0",
            "type": "t_uint256"
          }
        ],
        "numberOfBytes": "32"
      },
      "t_uint256": {
        "encoding": "inplace",
        "label": "uint256",
        "numberOfBytes": "32"
      }
    }
  }
}