{
  "address": "0x01c2102020abd0d572b781af075564041abf01ec",
  "abi": [
    {
      "inputs": [],
      "stateMutability": "nonpayable",
      "type": "constructor"
    },
    {
      "anonymous": false,
      "inputs": [
        {
          "indexed": true,
          "internalType": "address",
          "name": "owner",
          "type": "address"
        },
        {
          "indexed": true,
          "internalType": "address",
          "name": "approved",
          "type": "address"
        },
        {
          "indexed": true,
          "internalType": "uint256",
          "name": "tokenId",
          "type": "uint256"
        }
      ],
      "name": "Approval",
      "type": "event"
    },
    {
      "anonymous": false,
      "inputs": [
        {
          "indexed": true,
          "internalType": "address",
          "name": "owner",
          "type": "address"
        },
        {
          "indexed": true,
          "internalType": "address",
          "name": "operator",
          "type": "address"
        },
        {
          "indexed": false,
          "internalType": "bool",
          "name": "approved",
          "type": "bool"
        }
      ],
      "name": "ApprovalForAll",
      "type": "event"
    },
    {
      "anonymous": false,
      "inputs": [
        {
          "indexed": true,
          "internalType": "address",
          "name": "previousOwner",
          "type": "address"
        },
        {
          "indexed": true,
          "internalType": "address",
          "name": "newOwner",
          "type": "address"
        }
      ],
      "name": "OwnershipTransferred",
      "type": "event"
    },
    {
      "anonymous": false,
      "inputs": [
        {
          "indexed": true,
          "internalType": "address",
          "name": "from",
          "type": "address"
        },
        {
          "indexed": true,
          "internalType": "address",
          "name": "to",
          "type": "address"
        },
        {
          "indexed": true,
          "internalType": "uint256",
          "name": "tokenId",
          "type": "uint256"
        }
      ],
      "name": "Transfer",
      "type": "event"
    },
    {
      "inputs": [
        {
          "internalType": "address",
          "name": "to",
          "type": "address"
        },
        {
          "internalType": "uint256",
          "name": "tokenId",
          "type": "uint256"
        }
      ],
      "name": "approve",
      "outputs": [],
      "stateMutability": "nonpayable",
      "type": "function"
    },
    {
      "inputs": [
        {
          "internalType": "address",
          "name": "owner",
          "type": "address"
        }
      ],
      "name": "balanceOf",
      "outputs": [
        {
          "internalType": "uint256",
          "name": "",
          "type": "uint256"
        }
      ],
      "stateMutability": "view",
      "type": "function"
    },
    {
      "inputs": [],
      "name": "fundProject",
      "outputs": [],
      "stateMutability": "payable",
      "type": "function"
    },
    {
      "inputs": [
        {
          "internalType": "uint256",
          "name": "tokenId",
          "type": "uint256"
        }
      ],
      "name": "getApproved",
      "outputs": [
        {
          "internalType": "address",
          "name": "",
          "type": "address"
        }
      ],
      "stateMutability": "view",
      "type": "function"
    },
    {
      "inputs": [],
      "name": "getBalance",
      "outputs": [
        {
          "internalType": "uint256",
          "name": "",
          "type": "uint256"
        }
      ],
      "stateMutability": "view",
      "type": "function"
    },
    {
      "inputs": [],
      "name": "getImpactScore",
      "outputs": [
        {
          "internalType": "uint256",
          "name": "",
          "type": "uint256"
        }
      ],
      "stateMutability": "view",
      "type": "function"
    },
    {
      "inputs": [
        {
          "internalType": "uint256",
          "name": "tokenId",
          "type": "uint256"
        }
      ],
      "name": "getScore",
      "outputs": [
        {
          "internalType": "uint256",
          "name": "",
          "type": "uint256"
        }
      ],
      "stateMutability": "view",
      "type": "function"
    },
    {
      "inputs": [
        {
          "internalType": "address",
          "name": "owner",
          "type": "address"
        },
        {
          "internalType": "address",
          "name": "operator",
          "type": "address"
        }
      ],
      "name": "isApprovedForAll",
      "outputs": [
        {
          "internalType": "bool",
          "name": "",
          "type": "bool"
        }
      ],
      "stateMutability": "view",
      "type": "function"
    },
    {
      "inputs": [
        {
          "internalType": "address",
          "name": "to",
          "type": "address"
        },
        {
          "internalType": "string",
          "name": "uri",
          "type": "string"
        }
      ],
      "name": "mintItem",
      "outputs": [
        {
          "internalType": "uint256",
          "name": "",
          "type": "uint256"
        }
      ],
      "stateMutability": "payable",
      "type": "function"
    },
    {
      "inputs": [
        {
          "internalType": "address payable",
          "name": "_to",
          "type": "address"
        },
        {
          "internalType": "uint256",
          "name": "amount",
          "type": "uint256"
        }
      ],
      "name": "moveFunds",
      "outputs": [],
      "stateMutability": "payable",
      "type": "function"
    },
    {
      "inputs": [],
      "name": "name",
      "outputs": [
        {
          "internalType": "string",
          "name": "",
          "type": "string"
        }
      ],
      "stateMutability": "view",
      "type": "function"
    },
    {
      "inputs": [],
      "name": "owner",
      "outputs": [
        {
          "internalType": "address",
          "name": "",
          "type": "address"
        }
      ],
      "stateMutability": "view",
      "type": "function"
    },
    {
      "inputs": [
        {
          "internalType": "uint256",
          "name": "tokenId",
          "type": "uint256"
        }
      ],
      "name": "ownerOf",
      "outputs": [
        {
          "internalType": "address",
          "name": "",
          "type": "address"
        }
      ],
      "stateMutability": "view",
      "type": "function"
    },
    {
      "inputs": [],
      "name": "renounceOwnership",
      "outputs": [],
      "stateMutability": "nonpayable",
      "type": "function"
    },
    {
      "inputs": [
        {
          "internalType": "address",
          "name": "from",
          "type": "address"
        },
        {
          "internalType": "address",
          "name": "to",
          "type": "address"
        },
        {
          "internalType": "uint256",
          "name": "tokenId",
          "type": "uint256"
        }
      ],
      "name": "safeTransferFrom",
      "outputs": [],
      "stateMutability": "nonpayable",
      "type": "function"
    },
    {
      "inputs": [
        {
          "internalType": "address",
          "name": "from",
          "type": "address"
        },
        {
          "internalType": "address",
          "name": "to",
          "type": "address"
        },
        {
          "internalType": "uint256",
          "name": "tokenId",
          "type": "uint256"
        },
        {
          "internalType": "bytes",
          "name": "_data",
          "type": "bytes"
        }
      ],
      "name": "safeTransferFrom",
      "outputs": [],
      "stateMutability": "nonpayable",
      "type": "function"
    },
    {
      "inputs": [
        {
          "internalType": "address",
          "name": "operator",
          "type": "address"
        },
        {
          "internalType": "bool",
          "name": "approved",
          "type": "bool"
        }
      ],
      "name": "setApprovalForAll",
      "outputs": [],
      "stateMutability": "nonpayable",
      "type": "function"
    },
    {
      "inputs": [
        {
          "internalType": "bytes4",
          "name": "interfaceId",
          "type": "bytes4"
        }
      ],
      "name": "supportsInterface",
      "outputs": [
        {
          "internalType": "bool",
          "name": "",
          "type": "bool"
        }
      ],
      "stateMutability": "view",
      "type": "function"
    },
    {
      "inputs": [],
      "name": "symbol",
      "outputs": [
        {
          "internalType": "string",
          "name": "",
          "type": "string"
        }
      ],
      "stateMutability": "view",
      "type": "function"
    },
    {
      "inputs": [
        {
          "internalType": "uint256",
          "name": "index",
          "type": "uint256"
        }
      ],
      "name": "tokenByIndex",
      "outputs": [
        {
          "internalType": "uint256",
          "name": "",
          "type": "uint256"
        }
      ],
      "stateMutability": "view",
      "type": "function"
    },
    {
      "inputs": [
        {
          "internalType": "address",
          "name": "owner",
          "type": "address"
        },
        {
          "internalType": "uint256",
          "name": "index",
          "type": "uint256"
        }
      ],
      "name": "tokenOfOwnerByIndex",
      "outputs": [
        {
          "internalType": "uint256",
          "name": "",
          "type": "uint256"
        }
      ],
      "stateMutability": "view",
      "type": "function"
    },
    {
      "inputs": [
        {
          "internalType": "uint256",
          "name": "tokenId",
          "type": "uint256"
        }
      ],
      "name": "tokenURI",
      "outputs": [
        {
          "internalType": "string",
          "name": "",
          "type": "string"
        }
      ],
      "stateMutability": "view",
      "type": "function"
    },
    {
      "inputs": [],
      "name": "totalSupply",
      "outputs": [
        {
          "internalType": "uint256",
          "name": "",
          "type": "uint256"
        }
      ],
      "stateMutability": "view",
      "type": "function"
    },
    {
      "inputs": [
        {
          "internalType": "address",
          "name": "from",
          "type": "address"
        },
        {
          "internalType": "address",
          "name": "to",
          "type": "address"
        },
        {
          "internalType": "uint256",
          "name": "tokenId",
          "type": "uint256"
        }
      ],
      "name": "transferFrom",
      "outputs": [],
      "stateMutability": "nonpayable",
      "type": "function"
    },
    {
      "inputs": [
        {
          "internalType": "address",
          "name": "newOwner",
          "type": "address"
        }
      ],
      "name": "transferOwnership",
      "outputs": [],
      "stateMutability": "nonpayable",
      "type": "function"
    },
    {
      "inputs": [
        {
          "internalType": "uint256",
          "name": "score",
          "type": "uint256"
        }
      ],
      "name": "updateImpactScore",
      "outputs": [],
      "stateMutability": "nonpayable",
      "type": "function"
    },
    {
      "inputs": [
        {
          "internalType": "uint256",
          "name": "tokenId",
          "type": "uint256"
        }
      ],
      "name": "updateNFT",
      "outputs": [],
      "stateMutability": "nonpayable",
      "type": "function"
    }
  ],
  "transactionHash": "0x64b46b944eaa66395da46d83f2270554a2034aa56dd19c2610762192f7e36dfc",
  "args": [],
  "numDeployments": 1,
  "solcInputHash": "ff03ccdaffaa94ccb76d23126a30c14b",
  "bytecode": "0x60806040526000600f553480156200001657600080fd5b5060405180604001604052806009815260200168125b5c1858dd13919560ba1b815250604051806040016040528060048152602001631253919560e21b815250620000706200006a620000a460201b60201c565b620000a8565b815162000085906001906020850190620000f8565b5080516200009b906002906020840190620000f8565b505050620001db565b3390565b600080546001600160a01b038381166001600160a01b0319831681178455604051919092169283917f8be0079c531659141344cd1fd0a4f28419497f9722a3daafe3b4186f6b6457e09190a35050565b82805462000106906200019e565b90600052602060002090601f0160209004810192826200012a576000855562000175565b82601f106200014557805160ff191683800117855562000175565b8280016001018555821562000175579182015b828111156200017557825182559160200191906001019062000158565b506200018392915062000187565b5090565b5b8082111562000183576000815560010162000188565b600181811c90821680620001b357607f821691505b60208210811415620001d557634e487b7160e01b600052602260045260246000fd5b50919050565b61218b80620001eb6000396000f3fe60806040526004361061019c5760003560e01c80636352211e116100ec578063a22cb4651161008a578063ccffb72411610064578063ccffb72414610478578063d63dc66114610250578063e985e9c514610498578063f2fde38b146104e157600080fd5b8063a22cb46514610418578063b88d4fde14610438578063c87b56dd1461045857600080fd5b80637255887b116100c65780637255887b146103b057806373ecc26d146103c55780638da5cb5b146103e557806395d89b411461040357600080fd5b80636352211e1461035b57806370a082311461037b578063715018a61461039b57600080fd5b806312065fe0116101595780632f745c59116101335780632f745c59146102e85780633e4760531461030857806342842e0e1461031b5780634f6ccce71461033b57600080fd5b806312065fe0146102a057806318160ddd146102b357806323b872dd146102c857600080fd5b806301ffc9a7146101a157806306fdde03146101d6578063081812fc146101f8578063095ea7b3146102305780630e1af57b14610252578063110bcd451461028d575b600080fd5b3480156101ad57600080fd5b506101c16101bc366004611de7565b610501565b60405190151581526020015b60405180910390f35b3480156101e257600080fd5b506101eb610512565b6040516101cd9190611ecf565b34801561020457600080fd5b50610218610213366004611e1f565b6105a4565b6040516001600160a01b0390911681526020016101cd565b34801561023c57600080fd5b5061025061024b366004611dd5565b610631565b005b34801561025e57600080fd5b5061027f61026d366004611e1f565b60009081526011602052604090205490565b6040519081526020016101cd565b61027f61029b366004611d74565b610747565b3480156102ac57600080fd5b504761027f565b3480156102bf57600080fd5b5060095461027f565b3480156102d457600080fd5b506102506102e3366004611c86565b61077e565b3480156102f457600080fd5b5061027f610303366004611dd5565b6107af565b610250610316366004611c23565b610845565b34801561032757600080fd5b50610250610336366004611c86565b6108f4565b34801561034757600080fd5b5061027f610356366004611e1f565b61090f565b34801561036757600080fd5b50610218610376366004611e1f565b6109b0565b34801561038757600080fd5b5061027f610396366004611c07565b610a27565b3480156103a757600080fd5b50610250610aae565b3480156103bc57600080fd5b50600f5461027f565b3480156103d157600080fd5b506102506103e0366004611e1f565b610b14565b3480156103f157600080fd5b506000546001600160a01b0316610218565b34801561040f57600080fd5b506101eb610b20565b34801561042457600080fd5b50610250610433366004611d43565b610b2f565b34801561044457600080fd5b50610250610453366004611cc6565b610b3e565b34801561046457600080fd5b506101eb610473366004611e1f565b610b70565b34801561048457600080fd5b50610250610493366004611e1f565b600f55565b3480156104a457600080fd5b506101c16104b3366004611c4e565b6001600160a01b03918216600090815260066020908152604080832093909416825291909152205460ff1690565b3480156104ed57600080fd5b506102506104fc366004611c07565b610b7b565b600061050c82610c43565b92915050565b60606001805461052190611ff4565b80601f016020809104026020016040519081016040528092919081815260200182805461054d90611ff4565b801561059a5780601f1061056f5761010080835404028352916020019161059a565b820191906000526020600020905b81548152906001019060200180831161057d57829003601f168201915b5050505050905090565b60006105af82610c68565b6106155760405162461bcd60e51b815260206004820152602c60248201527f4552433732313a20617070726f76656420717565727920666f72206e6f6e657860448201526b34b9ba32b73a103a37b5b2b760a11b60648201526084015b60405180910390fd5b506000908152600560205260409020546001600160a01b031690565b600061063c826109b0565b9050806001600160a01b0316836001600160a01b031614156106aa5760405162461bcd60e51b815260206004820152602160248201527f4552433732313a20617070726f76616c20746f2063757272656e74206f776e656044820152603960f91b606482015260840161060c565b336001600160a01b03821614806106c657506106c681336104b3565b6107385760405162461bcd60e51b815260206004820152603860248201527f4552433732313a20617070726f76652063616c6c6572206973206e6f74206f7760448201527f6e6572206e6f7220617070726f76656420666f7220616c6c0000000000000000606482015260840161060c565b6107428383610c85565b505050565b6000610757600c80546001019055565b6000610762600c5490565b905061076e8482610cf3565b61077781610d0d565b9392505050565b6107883382610da0565b6107a45760405162461bcd60e51b815260040161060c90611f34565b610742838383610e8a565b60006107ba83610a27565b821061081c5760405162461bcd60e51b815260206004820152602b60248201527f455243373231456e756d657261626c653a206f776e657220696e646578206f7560448201526a74206f6620626f756e647360a81b606482015260840161060c565b506001600160a01b03919091166000908152600760209081526040808320938352929052205490565b8047101561085257600080fd5b600080836001600160a01b03168360405160006040518083038185875af1925050503d80600081146108a0576040519150601f19603f3d011682016040523d82523d6000602084013e6108a5565b606091505b5091509150816108ee5760405162461bcd60e51b81526020600482015260146024820152732330b4b632b2103a379039b2b7321022ba3432b960611b604482015260640161060c565b50505050565b61074283838360405180602001604052806000815250610b3e565b600061091a60095490565b821061097d5760405162461bcd60e51b815260206004820152602c60248201527f455243373231456e756d657261626c653a20676c6f62616c20696e646578206f60448201526b7574206f6620626f756e647360a01b606482015260840161060c565b6009828154811061099e57634e487b7160e01b600052603260045260246000fd5b90600052602060002001549050919050565b6000818152600360205260408120546001600160a01b03168061050c5760405162461bcd60e51b815260206004820152602960248201527f4552433732313a206f776e657220717565727920666f72206e6f6e657869737460448201526832b73a103a37b5b2b760b91b606482015260840161060c565b60006001600160a01b038216610a925760405162461bcd60e51b815260206004820152602a60248201527f4552433732313a2062616c616e636520717565727920666f7220746865207a65604482015269726f206164647265737360b01b606482015260840161060c565b506001600160a01b031660009081526004602052604090205490565b6000546001600160a01b03163314610b085760405162461bcd60e51b815260206004820181905260248201527f4f776e61626c653a2063616c6c6572206973206e6f7420746865206f776e6572604482015260640161060c565b610b126000611035565b565b610b1d81610d0d565b50565b60606002805461052190611ff4565b610b3a338383611085565b5050565b610b483383610da0565b610b645760405162461bcd60e51b815260040161060c90611f34565b6108ee84848484611154565b606061050c82611187565b6000546001600160a01b03163314610bd55760405162461bcd60e51b815260206004820181905260248201527f4f776e61626c653a2063616c6c6572206973206e6f7420746865206f776e6572604482015260640161060c565b6001600160a01b038116610c3a5760405162461bcd60e51b815260206004820152602660248201527f4f776e61626c653a206e6577206f776e657220697320746865207a65726f206160448201526564647265737360d01b606482015260840161060c565b610b1d81611035565b60006001600160e01b0319821663780e9d6360e01b148061050c575061050c82611313565b6000908152600360205260409020546001600160a01b0316151590565b600081815260056020526040902080546001600160a01b0319166001600160a01b0384169081179091558190610cba826109b0565b6001600160a01b03167f8c5be1e5ebec7d5bd14f71427d1e84f3dd0314c0f7b2291e5b200ac8c7c3b92560405160405180910390a45050565b610b3a828260405180602001604052806000815250611363565b60606103e8600f541015610d37576040518060600160405280602e81526020016120cc602e913990505b6103e8600f5410158015610d4e57506107d0600f54105b15610d6f576040518060600160405280602e81526020016120fa602e913990505b6107d0600f5410610d96576040518060600160405280602e8152602001612128602e913990505b610b3a8282611396565b6000610dab82610c68565b610e0c5760405162461bcd60e51b815260206004820152602c60248201527f4552433732313a206f70657261746f7220717565727920666f72206e6f6e657860448201526b34b9ba32b73a103a37b5b2b760a11b606482015260840161060c565b6000610e17836109b0565b9050806001600160a01b0316846001600160a01b03161480610e525750836001600160a01b0316610e47846105a4565b6001600160a01b0316145b80610e8257506001600160a01b0380821660009081526006602090815260408083209388168352929052205460ff165b949350505050565b826001600160a01b0316610e9d826109b0565b6001600160a01b031614610f055760405162461bcd60e51b815260206004820152602960248201527f4552433732313a207472616e73666572206f6620746f6b656e2074686174206960448201526839903737ba1037bbb760b91b606482015260840161060c565b6001600160a01b038216610f675760405162461bcd60e51b8152602060048201526024808201527f4552433732313a207472616e7366657220746f20746865207a65726f206164646044820152637265737360e01b606482015260840161060c565b610f72838383611421565b610f7d600082610c85565b6001600160a01b0383166000908152600460205260408120805460019290610fa6908490611fb1565b90915550506001600160a01b0382166000908152600460205260408120805460019290610fd4908490611f85565b909155505060008181526003602052604080822080546001600160a01b0319166001600160a01b0386811691821790925591518493918716917fddf252ad1be2c89b69c2b068fc378daa952ba7f163c4a11628f55a4df523b3ef91a4505050565b600080546001600160a01b038381166001600160a01b0319831681178455604051919092169283917f8be0079c531659141344cd1fd0a4f28419497f9722a3daafe3b4186f6b6457e09190a35050565b816001600160a01b0316836001600160a01b031614156110e75760405162461bcd60e51b815260206004820152601960248201527f4552433732313a20617070726f766520746f2063616c6c657200000000000000604482015260640161060c565b6001600160a01b03838116600081815260066020908152604080832094871680845294825291829020805460ff191686151590811790915591519182527f17307eab39ab6107e8899845ad3d59bd9653f200f220920489ca2b5937696c31910160405180910390a3505050565b61115f848484610e8a565b61116b8484848461142c565b6108ee5760405162461bcd60e51b815260040161060c90611ee2565b606061119282610c68565b6111f85760405162461bcd60e51b815260206004820152603160248201527f45524337323155524953746f726167653a2055524920717565727920666f72206044820152703737b732bc34b9ba32b73a103a37b5b2b760791b606482015260840161060c565b6000828152600b60205260408120805461121190611ff4565b80601f016020809104026020016040519081016040528092919081815260200182805461123d90611ff4565b801561128a5780601f1061125f5761010080835404028352916020019161128a565b820191906000526020600020905b81548152906001019060200180831161126d57829003601f168201915b5050505050905060006112c560408051808201909152601581527468747470733a2f2f697066732e696f2f697066732f60581b602082015290565b90508051600014156112d8575092915050565b81511561130a5780826040516020016112f2929190611e63565b60405160208183030381529060405292505050919050565b610e8284611539565b60006001600160e01b031982166380ac58cd60e01b148061134457506001600160e01b03198216635b5e139f60e01b145b8061050c57506301ffc9a760e01b6001600160e01b031983161461050c565b61136d838361162d565b61137a600084848461142c565b6107425760405162461bcd60e51b815260040161060c90611ee2565b61139f82610c68565b6114025760405162461bcd60e51b815260206004820152602e60248201527f45524337323155524953746f726167653a2055524920736574206f66206e6f6e60448201526d32bc34b9ba32b73a103a37b5b2b760911b606482015260840161060c565b6000828152600b60209081526040909120825161074292840190611af8565b61074283838361176c565b60006001600160a01b0384163b1561152e57604051630a85bd0160e11b81526001600160a01b0385169063150b7a0290611470903390899088908890600401611e92565b602060405180830381600087803b15801561148a57600080fd5b505af19250505080156114ba575060408051601f3d908101601f191682019092526114b791810190611e03565b60015b611514573d8080156114e8576040519150601f19603f3d011682016040523d82523d6000602084013e6114ed565b606091505b50805161150c5760405162461bcd60e51b815260040161060c90611ee2565b805181602001fd5b6001600160e01b031916630a85bd0160e11b149050610e82565b506001949350505050565b606061154482610c68565b6115a85760405162461bcd60e51b815260206004820152602f60248201527f4552433732314d657461646174613a2055524920717565727920666f72206e6f60448201526e3732bc34b9ba32b73a103a37b5b2b760891b606482015260840161060c565b60006115dc60408051808201909152601581527468747470733a2f2f697066732e696f2f697066732f60581b602082015290565b905060008151116115fc5760405180602001604052806000815250610777565b8061160684611824565b604051602001611617929190611e63565b6040516020818303038152906040529392505050565b6001600160a01b0382166116835760405162461bcd60e51b815260206004820181905260248201527f4552433732313a206d696e7420746f20746865207a65726f2061646472657373604482015260640161060c565b61168c81610c68565b156116d95760405162461bcd60e51b815260206004820152601c60248201527f4552433732313a20746f6b656e20616c7265616479206d696e74656400000000604482015260640161060c565b6116e560008383611421565b6001600160a01b038216600090815260046020526040812080546001929061170e908490611f85565b909155505060008181526003602052604080822080546001600160a01b0319166001600160a01b03861690811790915590518392907fddf252ad1be2c89b69c2b068fc378daa952ba7f163c4a11628f55a4df523b3ef908290a45050565b6001600160a01b0383166117c7576117c281600980546000838152600a60205260408120829055600182018355919091527f6e1540171b6c0c960b71a7020d9f60077f6af931a8bbf590da0223dacf75c7af0155565b6117ea565b816001600160a01b0316836001600160a01b0316146117ea576117ea838261193e565b6001600160a01b03821661180157610742816119db565b826001600160a01b0316826001600160a01b031614610742576107428282611ab4565b6060816118485750506040805180820190915260018152600360fc1b602082015290565b8160005b8115611872578061185c8161202f565b915061186b9050600a83611f9d565b915061184c565b60008167ffffffffffffffff81111561189b57634e487b7160e01b600052604160045260246000fd5b6040519080825280601f01601f1916602001820160405280156118c5576020820181803683370190505b5090505b8415610e82576118da600183611fb1565b91506118e7600a8661204a565b6118f2906030611f85565b60f81b81838151811061191557634e487b7160e01b600052603260045260246000fd5b60200101906001600160f81b031916908160001a905350611937600a86611f9d565b94506118c9565b6000600161194b84610a27565b6119559190611fb1565b6000838152600860205260409020549091508082146119a8576001600160a01b03841660009081526007602090815260408083208584528252808320548484528184208190558352600890915290208190555b5060009182526008602090815260408084208490556001600160a01b039094168352600781528383209183525290812055565b6009546000906119ed90600190611fb1565b6000838152600a602052604081205460098054939450909284908110611a2357634e487b7160e01b600052603260045260246000fd5b906000526020600020015490508060098381548110611a5257634e487b7160e01b600052603260045260246000fd5b6000918252602080832090910192909255828152600a90915260408082208490558582528120556009805480611a9857634e487b7160e01b600052603160045260246000fd5b6001900381819060005260206000200160009055905550505050565b6000611abf83610a27565b6001600160a01b039093166000908152600760209081526040808320868452825280832085905593825260089052919091209190915550565b828054611b0490611ff4565b90600052602060002090601f016020900481019282611b265760008555611b6c565b82601f10611b3f57805160ff1916838001178555611b6c565b82800160010185558215611b6c579182015b82811115611b6c578251825591602001919060010190611b51565b50611b78929150611b7c565b5090565b5b80821115611b785760008155600101611b7d565b600067ffffffffffffffff80841115611bac57611bac61208a565b604051601f8501601f19908116603f01168101908282118183101715611bd457611bd461208a565b81604052809350858152868686011115611bed57600080fd5b858560208301376000602087830101525050509392505050565b600060208284031215611c18578081fd5b8135610777816120a0565b60008060408385031215611c35578081fd5b8235611c40816120a0565b946020939093013593505050565b60008060408385031215611c60578182fd5b8235611c6b816120a0565b91506020830135611c7b816120a0565b809150509250929050565b600080600060608486031215611c9a578081fd5b8335611ca5816120a0565b92506020840135611cb5816120a0565b929592945050506040919091013590565b60008060008060808587031215611cdb578081fd5b8435611ce6816120a0565b93506020850135611cf6816120a0565b925060408501359150606085013567ffffffffffffffff811115611d18578182fd5b8501601f81018713611d28578182fd5b611d3787823560208401611b91565b91505092959194509250565b60008060408385031215611d55578182fd5b8235611d60816120a0565b915060208301358015158114611c7b578182fd5b60008060408385031215611d86578182fd5b8235611d91816120a0565b9150602083013567ffffffffffffffff811115611dac578182fd5b8301601f81018513611dbc578182fd5b611dcb85823560208401611b91565b9150509250929050565b60008060408385031215611c35578182fd5b600060208284031215611df8578081fd5b8135610777816120b5565b600060208284031215611e14578081fd5b8151610777816120b5565b600060208284031215611e30578081fd5b5035919050565b60008151808452611e4f816020860160208601611fc8565b601f01601f19169290920160200192915050565b60008351611e75818460208801611fc8565b835190830190611e89818360208801611fc8565b01949350505050565b6001600160a01b0385811682528416602082015260408101839052608060608201819052600090611ec590830184611e37565b9695505050505050565b6020815260006107776020830184611e37565b60208082526032908201527f4552433732313a207472616e7366657220746f206e6f6e20455243373231526560408201527131b2b4bb32b91034b6b83632b6b2b73a32b960711b606082015260800190565b60208082526031908201527f4552433732313a207472616e736665722063616c6c6572206973206e6f74206f6040820152701ddb995c881b9bdc88185c1c1c9bdd9959607a1b606082015260800190565b60008219821115611f9857611f9861205e565b500190565b600082611fac57611fac612074565b500490565b600082821015611fc357611fc361205e565b500390565b60005b83811015611fe3578181015183820152602001611fcb565b838111156108ee5750506000910152565b600181811c9082168061200857607f821691505b6020821081141561202957634e487b7160e01b600052602260045260246000fd5b50919050565b60006000198214156120435761204361205e565b5060010190565b60008261205957612059612074565b500690565b634e487b7160e01b600052601160045260246000fd5b634e487b7160e01b600052601260045260246000fd5b634e487b7160e01b600052604160045260246000fd5b6001600160a01b0381168114610b1d57600080fd5b6001600160e01b031981168114610b1d57600080fdfe516d66564d416d4e4d316b4445425972433254507a51446f4352464836463574453165394d7234466b6b52355872516d564869336334716b5a634833634a796e7a4458526d356e37647a633952395455745563666e57517668646377516d63766355614b66364a794358684c4431627936684a584e727550514773336b6b4c673257317872376e46316aa26469706673582212207af202504c10ba9f5e49c2a8c0b7e3f99e0215e8c76262d04056a80cab5680cf64736f6c63430008040033",
  "devdoc": {
    "kind": "dev",
    "methods": {
      "approve(address,uint256)": {
        "details": "See {IERC721-approve}."
      },
      "balanceOf(address)": {
        "details": "See {IERC721-balanceOf}."
      },
      "getApproved(uint256)": {
        "details": "See {IERC721-getApproved}."
      },
      "isApprovedForAll(address,address)": {
        "details": "See {IERC721-isApprovedForAll}."
      },
      "name()": {
        "details": "See {IERC721Metadata-name}."
      },
      "owner()": {
        "details": "Returns the address of the current owner."
      },
      "ownerOf(uint256)": {
        "details": "See {IERC721-ownerOf}."
      },
      "renounceOwnership()": {
        "details": "Leaves the contract without owner. It will not be possible to call `onlyOwner` functions anymore. Can only be called by the current owner. NOTE: Renouncing ownership will leave the contract without an owner, thereby removing any functionality that is only available to the owner."
      },
      "safeTransferFrom(address,address,uint256)": {
        "details": "See {IERC721-safeTransferFrom}."
      },
      "safeTransferFrom(address,address,uint256,bytes)": {
        "details": "See {IERC721-safeTransferFrom}."
      },
      "setApprovalForAll(address,bool)": {
        "details": "See {IERC721-setApprovalForAll}."
      },
      "symbol()": {
        "details": "See {IERC721Metadata-symbol}."
      },
      "tokenByIndex(uint256)": {
        "details": "See {IERC721Enumerable-tokenByIndex}."
      },
      "tokenOfOwnerByIndex(address,uint256)": {
        "details": "See {IERC721Enumerable-tokenOfOwnerByIndex}."
      },
      "totalSupply()": {
        "details": "See {IERC721Enumerable-totalSupply}."
      },
      "transferFrom(address,address,uint256)": {
        "details": "See {IERC721-transferFrom}."
      },
      "transferOwnership(address)": {
        "details": "Transfers ownership of the contract to a new account (`newOwner`). Can only be called by the current owner."
      }
    },
    "version": 1
  },
  "userdoc": {
    "kind": "user",
    "methods": {},
    "version": 1
  },
  "storageLayout": {
    "storage": [
      {
        "astId": 7,
        "contract": "contracts/YourCollectible.sol:YourCollectible",
        "label": "_owner",
        "offset": 0,
        "slot": "0",
        "type": "t_address"
      },
      {
        "astId": 130,
        "contract": "contracts/YourCollectible.sol:YourCollectible",
        "label": "_name",
        "offset": 0,
        "slot": "1",
        "type": "t_string_storage"
      },
      {
        "astId": 132,
        "contract": "contracts/YourCollectible.sol:YourCollectible",
        "label": "_symbol",
        "offset": 0,
        "slot": "2",
        "type": "t_string_storage"
      },
      {
        "astId": 136,
        "contract": "contracts/YourCollectible.sol:YourCollectible",
        "label": "_owners",
        "offset": 0,
        "slot": "3",
        "type": "t_mapping(t_uint256,t_address)"
      },
      {
        "astId": 140,
        "contract": "contracts/YourCollectible.sol:YourCollectible",
        "label": "_balances",
        "offset": 0,
        "slot": "4",
        "type": "t_mapping(t_address,t_uint256)"
      },
      {
        "astId": 144,
        "contract": "contracts/YourCollectible.sol:YourCollectible",
        "label": "_tokenApprovals",
        "offset": 0,
        "slot": "5",
        "type": "t_mapping(t_uint256,t_address)"
      },
      {
        "astId": 150,
        "contract": "contracts/YourCollectible.sol:YourCollectible",
        "label": "_operatorApprovals",
        "offset": 0,
        "slot": "6",
        "type": "t_mapping(t_address,t_mapping(t_address,t_bool))"
      },
      {
        "astId": 1084,
        "contract": "contracts/YourCollectible.sol:YourCollectible",
        "label": "_ownedTokens",
        "offset": 0,
        "slot": "7",
        "type": "t_mapping(t_address,t_mapping(t_uint256,t_uint256))"
      },
      {
        "astId": 1088,
        "contract": "contracts/YourCollectible.sol:YourCollectible",
        "label": "_ownedTokensIndex",
        "offset": 0,
        "slot": "8",
        "type": "t_mapping(t_uint256,t_uint256)"
      },
      {
        "astId": 1091,
        "contract": "contracts/YourCollectible.sol:YourCollectible",
        "label": "_allTokens",
        "offset": 0,
        "slot": "9",
        "type": "t_array(t_uint256)dyn_storage"
      },
      {
        "astId": 1095,
        "contract": "contracts/YourCollectible.sol:YourCollectible",
        "label": "_allTokensIndex",
        "offset": 0,
        "slot": "10",
        "type": "t_mapping(t_uint256,t_uint256)"
      },
      {
        "astId": 1420,
        "contract": "contracts/YourCollectible.sol:YourCollectible",
        "label": "_tokenURIs",
        "offset": 0,
        "slot": "11",
        "type": "t_mapping(t_uint256,t_string_storage)"
      },
      {
        "astId": 2247,
        "contract": "contracts/YourCollectible.sol:YourCollectible",
        "label": "_tokenIdCounter",
        "offset": 0,
        "slot": "12",
        "type": "t_struct(Counter)1918_storage"
      },
      {
        "astId": 2250,
        "contract": "contracts/YourCollectible.sol:YourCollectible",
        "label": "_funderIdCounter",
        "offset": 0,
        "slot": "13",
        "type": "t_struct(Counter)1918_storage"
      },
      {
        "astId": 2254,
        "contract": "contracts/YourCollectible.sol:YourCollectible",
        "label": "_funders",
        "offset": 0,
        "slot": "14",
        "type": "t_mapping(t_uint256,t_address)"
      },
      {
        "astId": 2257,
        "contract": "contracts/YourCollectible.sol:YourCollectible",
        "label": "_impactScore",
        "offset": 0,
        "slot": "15",
        "type": "t_uint256"
      },
      {
        "astId": 2259,
        "contract": "contracts/YourCollectible.sol:YourCollectible",
        "label": "_projectOwner",
        "offset": 0,
        "slot": "16",
        "type": "t_address"
      },
      {
        "astId": 2263,
        "contract": "contracts/YourCollectible.sol:YourCollectible",
        "label": "_score",
        "offset": 0,
        "slot": "17",
        "type": "t_mapping(t_uint256,t_uint256)"
      }
    ],
    "types": {
      "t_address": {
        "encoding": "inplace",
        "label": "address",
        "numberOfBytes": "20"
      },
      "t_array(t_uint256)dyn_storage": {
        "base": "t_uint256",
        "encoding": "dynamic_array",
        "label": "uint256[]",
        "numberOfBytes": "32"
      },
      "t_bool": {
        "encoding": "inplace",
        "label": "bool",
        "numberOfBytes": "1"
      },
      "t_mapping(t_address,t_bool)": {
        "encoding": "mapping",
        "key": "t_address",
        "label": "mapping(address => bool)",
        "numberOfBytes": "32",
        "value": "t_bool"
      },
      "t_mapping(t_address,t_mapping(t_address,t_bool))": {
        "encoding": "mapping",
        "key": "t_address",
        "label": "mapping(address => mapping(address => bool))",
        "numberOfBytes": "32",
        "value": "t_mapping(t_address,t_bool)"
      },
      "t_mapping(t_address,t_mapping(t_uint256,t_uint256))": {
        "encoding": "mapping",
        "key": "t_address",
        "label": "mapping(address => mapping(uint256 => uint256))",
        "numberOfBytes": "32",
        "value": "t_mapping(t_uint256,t_uint256)"
      },
      "t_mapping(t_address,t_uint256)": {
        "encoding": "mapping",
        "key": "t_address",
        "label": "mapping(address => uint256)",
        "numberOfBytes": "32",
        "value": "t_uint256"
      },
      "t_mapping(t_uint256,t_address)": {
        "encoding": "mapping",
        "key": "t_uint256",
        "label": "mapping(uint256 => address)",
        "numberOfBytes": "32",
        "value": "t_address"
      },
      "t_mapping(t_uint256,t_string_storage)": {
        "encoding": "mapping",
        "key": "t_uint256",
        "label": "mapping(uint256 => string)",
        "numberOfBytes": "32",
        "value": "t_string_storage"
      },
      "t_mapping(t_uint256,t_uint256)": {
        "encoding": "mapping",
        "key": "t_uint256",
        "label": "mapping(uint256 => uint256)",
        "numberOfBytes": "32",
        "value": "t_uint256"
      },
      "t_string_storage": {
        "encoding": "bytes",
        "label": "string",
        "numberOfBytes": "32"
      },
      "t_struct(Counter)1918_storage": {
        "encoding": "inplace",
        "label": "struct Counters.Counter",
        "members": [
          {
            "astId": 1917,
            "contract": "contracts/YourCollectible.sol:YourCollectible",
            "label": "_value",
            "offset": 0,
            "slot": "0",
            "type": "t_uint256"
          }
        ],
        "numberOfBytes": "32"
      },
      "t_uint256": {
        "encoding": "inplace",
        "label": "uint256",
        "numberOfBytes": "32"
      }
    }
  }
}